{
  "contractName": "ItemManager",
  "abi": [
    {
      "anonymous": false,
      "inputs": [
        {
          "indexed": false,
          "internalType": "uint256",
          "name": "_itemIndex",
          "type": "uint256"
        },
        {
          "indexed": false,
          "internalType": "uint256",
          "name": "_step",
          "type": "uint256"
        },
        {
          "indexed": false,
          "internalType": "address",
          "name": "_itemaddress",
          "type": "address"
        }
      ],
      "name": "SupplyChainStep",
      "type": "event"
    },
    {
      "inputs": [],
      "name": "isOwner",
      "outputs": [
        {
          "internalType": "bool",
          "name": "",
          "type": "bool"
        }
      ],
      "stateMutability": "view",
      "type": "function",
      "constant": true
    },
    {
      "inputs": [
        {
          "internalType": "uint256",
          "name": "",
          "type": "uint256"
        }
      ],
      "name": "items",
      "outputs": [
        {
          "internalType": "contract Item",
          "name": "_item",
          "type": "address"
        },
        {
          "internalType": "enum ItemManager.SupplyChainSteps",
          "name": "_step",
          "type": "uint8"
        },
        {
          "internalType": "string",
          "name": "_identifier",
          "type": "string"
        },
        {
          "internalType": "uint256",
          "name": "_priceInWei",
          "type": "uint256"
        }
      ],
      "stateMutability": "view",
      "type": "function",
      "constant": true
    },
    {
      "inputs": [
        {
          "internalType": "string",
          "name": "_identifier",
          "type": "string"
        },
        {
          "internalType": "uint256",
          "name": "_itemPrice",
          "type": "uint256"
        }
      ],
      "name": "createItem",
      "outputs": [],
      "stateMutability": "nonpayable",
      "type": "function"
    },
    {
      "inputs": [
        {
          "internalType": "uint256",
          "name": "_itemIndex",
          "type": "uint256"
        }
      ],
      "name": "triggerPayment",
      "outputs": [],
      "stateMutability": "payable",
      "type": "function",
      "payable": true
    },
    {
      "inputs": [
        {
          "internalType": "uint256",
          "name": "_itemIndex",
          "type": "uint256"
        }
      ],
      "name": "triggerDelivery",
      "outputs": [],
      "stateMutability": "nonpayable",
      "type": "function"
    },
    {
      "inputs": [],
      "name": "withdraw",
      "outputs": [],
      "stateMutability": "nonpayable",
      "type": "function"
    }
  ],
  "bytecode": "0x6080604052336000806101000a81548173ffffffffffffffffffffffffffffffffffffffff021916908373ffffffffffffffffffffffffffffffffffffffff1602179055506111be806100536000396000f3fe6080604052600436106100555760003560e01c80633ccfd60b1461005a578063800fb83f146100715780638c5517421461009f5780638f32d59b14610171578063bfb231d2146101a0578063cd31831e146102a3575b600080fd5b34801561006657600080fd5b5061006f6102de565b005b61009d6004803603602081101561008757600080fd5b81019080803590602001909291905050506103e5565b005b3480156100ab57600080fd5b5061016f600480360360408110156100c257600080fd5b81019080803590602001906401000000008111156100df57600080fd5b8201836020820111156100f157600080fd5b8035906020019184600183028401116401000000008311171561011357600080fd5b91908080601f016020809104026020016040519081016040528093929190818152602001838380828437600081840152601f19601f82011690508083019250505050505050919291929080359060200190929190505050610614565b005b34801561017d57600080fd5b5061018661089b565b604051808215151515815260200191505060405180910390f35b3480156101ac57600080fd5b506101d9600480360360208110156101c357600080fd5b81019080803590602001909291905050506108f2565b604051808573ffffffffffffffffffffffffffffffffffffffff1673ffffffffffffffffffffffffffffffffffffffff16815260200184600281111561021b57fe5b60ff16815260200180602001838152602001828103825284818151815260200191508051906020019080838360005b8381101561026557808201518184015260208101905061024a565b50505050905090810190601f1680156102925780820380516001836020036101000a031916815260200191505b509550505050505060405180910390f35b3480156102af57600080fd5b506102dc600480360360208110156102c657600080fd5b81019080803590602001909291905050506109e7565b005b6102e661089b565b610358576040517f08c379a00000000000000000000000000000000000000000000000000000000081526004018080602001828103825260158152602001807f596f7520617265206e6f7420746865206f776e6572000000000000000000000081525060200191505060405180910390fd5b600030905060008173ffffffffffffffffffffffffffffffffffffffff163190506000809054906101000a900473ffffffffffffffffffffffffffffffffffffffff1673ffffffffffffffffffffffffffffffffffffffff166108fc829081150290604051600060405180830381858888f193505050501580156103e0573d6000803e3d6000fd5b505050565b3460016000838152602001908152602001600020600201541115610471576040517f08c379a000000000000000000000000000000000000000000000000000000000815260040180806020018281038252600e8152602001807f4e6f742066756c6c79207061696400000000000000000000000000000000000081525060200191505060405180910390fd5b6000600281111561047e57fe5b6001600083815260200190815260200160002060000160149054906101000a900460ff1660028111156104ad57fe5b14610503576040517f08c379a00000000000000000000000000000000000000000000000000000000081526004018080602001828103825260238152602001806111666023913960400191505060405180910390fd5b600180600083815260200190815260200160002060000160146101000a81548160ff0219169083600281111561053557fe5b02179055507fa4035636e99f06b7651a604c1019fa4e8779fe68ef27eeb74dff2de348f6199b816001600084815260200190815260200160002060000160149054906101000a900460ff16600281111561058b57fe5b6001600085815260200190815260200160002060000160009054906101000a900473ffffffffffffffffffffffffffffffffffffffff16604051808481526020018381526020018273ffffffffffffffffffffffffffffffffffffffff1673ffffffffffffffffffffffffffffffffffffffff168152602001935050505060405180910390a150565b61061c61089b565b61068e576040517f08c379a00000000000000000000000000000000000000000000000000000000081526004018080602001828103825260158152602001807f596f7520617265206e6f7420746865206f776e6572000000000000000000000081525060200191505060405180910390fd5b600030826002546040516106a190610c05565b808473ffffffffffffffffffffffffffffffffffffffff1673ffffffffffffffffffffffffffffffffffffffff1681526020018381526020018281526020019350505050604051809103906000f080158015610701573d6000803e3d6000fd5b5090508060016000600254815260200190815260200160002060000160006101000a81548173ffffffffffffffffffffffffffffffffffffffff021916908373ffffffffffffffffffffffffffffffffffffffff1602179055508160016000600254815260200190815260200160002060020181905550600060016000600254815260200190815260200160002060000160146101000a81548160ff021916908360028111156107ad57fe5b02179055508260016000600254815260200190815260200160002060010190805190602001906107de929190610c12565b507fa4035636e99f06b7651a604c1019fa4e8779fe68ef27eeb74dff2de348f6199b60025460016000600254815260200190815260200160002060000160149054906101000a900460ff16600281111561083457fe5b83604051808481526020018381526020018273ffffffffffffffffffffffffffffffffffffffff1673ffffffffffffffffffffffffffffffffffffffff168152602001935050505060405180910390a1600260008154809291906001019190505550505050565b60008060009054906101000a900473ffffffffffffffffffffffffffffffffffffffff1673ffffffffffffffffffffffffffffffffffffffff163373ffffffffffffffffffffffffffffffffffffffff1614905090565b60016020528060005260406000206000915090508060000160009054906101000a900473ffffffffffffffffffffffffffffffffffffffff16908060000160149054906101000a900460ff1690806001018054600181600116156101000203166002900480601f0160208091040260200160405190810160405280929190818152602001828054600181600116156101000203166002900480156109d75780601f106109ac576101008083540402835291602001916109d7565b820191906000526020600020905b8154815290600101906020018083116109ba57829003601f168201915b5050505050908060020154905084565b6109ef61089b565b610a61576040517f08c379a00000000000000000000000000000000000000000000000000000000081526004018080602001828103825260158152602001807f596f7520617265206e6f7420746865206f776e6572000000000000000000000081525060200191505060405180910390fd5b60016002811115610a6e57fe5b6001600083815260200190815260200160002060000160149054906101000a900460ff166002811115610a9d57fe5b14610af3576040517f08c379a00000000000000000000000000000000000000000000000000000000081526004018080602001828103825260238152602001806111666023913960400191505060405180910390fd5b60026001600083815260200190815260200160002060000160146101000a81548160ff02191690836002811115610b2657fe5b02179055507fa4035636e99f06b7651a604c1019fa4e8779fe68ef27eeb74dff2de348f6199b816001600084815260200190815260200160002060000160149054906101000a900460ff166002811115610b7c57fe5b6001600085815260200190815260200160002060000160009054906101000a900473ffffffffffffffffffffffffffffffffffffffff16604051808481526020018381526020018273ffffffffffffffffffffffffffffffffffffffff1673ffffffffffffffffffffffffffffffffffffffff168152602001935050505060405180910390a150565b6104ae80610cb883390190565b828054600181600116156101000203166002900490600052602060002090601f016020900481019282601f10610c5357805160ff1916838001178555610c81565b82800160010185558215610c81579182015b82811115610c80578251825591602001919060010190610c65565b5b509050610c8e9190610c92565b5090565b610cb491905b80821115610cb0576000816000905550600101610c98565b5090565b9056fe608060405234801561001057600080fd5b506040516104ae3803806104ae8339818101604052606081101561003357600080fd5b81019080805190602001909291908051906020019092919080519060200190929190505050816000819055508060018190555082600360006101000a81548173ffffffffffffffffffffffffffffffffffffffff021916908373ffffffffffffffffffffffffffffffffffffffff1602179055505050506103f5806100b96000396000f3fe6080604052600436106100385760003560e01c80632986c0e51461032c5780633c8da5881461035757806389794d00146103825761031d565b3661031d576000600254146100b5576040517f08c379a00000000000000000000000000000000000000000000000000000000081526004018080602001828103825260148152602001807f4974656d206973207061696420616c726561647900000000000000000000000081525060200191505060405180910390fd5b60006002541461012d576040517f08c379a00000000000000000000000000000000000000000000000000000000081526004018080602001828103825260118152602001807f4974656d2066756c6c207061796d656e7400000000000000000000000000000081525060200191505060405180910390fd5b346002600082825401925050819055506000600360009054906101000a900473ffffffffffffffffffffffffffffffffffffffff1673ffffffffffffffffffffffffffffffffffffffff1634600154604051602401808281526020019150506040516020818303038152906040527f800fb83f000000000000000000000000000000000000000000000000000000007bffffffffffffffffffffffffffffffffffffffffffffffffffffffff19166020820180517bffffffffffffffffffffffffffffffffffffffffffffffffffffffff83818316178352505050506040518082805190602001908083835b6020831061023c5780518252602082019150602081019050602083039250610219565b6001836020036101000a03801982511681845116808217855250505050505090500191505060006040518083038185875af1925050503d806000811461029e576040519150601f19603f3d011682016040523d82523d6000602084013e6102a3565b606091505b505090508061031a576040517f08c379a000000000000000000000000000000000000000000000000000000000815260040180806020018281038252601a8152602001807f546865207472616e73616374696f6e207375636365737366756c00000000000081525060200191505060405180910390fd5b50005b34801561032957600080fd5b50005b34801561033857600080fd5b506103416103ad565b6040518082815260200191505060405180910390f35b34801561036357600080fd5b5061036c6103b3565b6040518082815260200191505060405180910390f35b34801561038e57600080fd5b506103976103b9565b6040518082815260200191505060405180910390f35b60015481565b60005481565b6002548156fea2646970667358221220c4f26645c55d5e65c13a7eb6bd2d25107a438d1d03697c1a9ae1b0b6d5dde4ca64736f6c634300060000334974656d206973206675727468657220696e2074686520737570706c7920636861696ea2646970667358221220c800f07b7779af36e07aaa89bd13f1c9d66e41e2ae7d7fadc0873f77c1a959b864736f6c63430006000033",
  "source": "pragma solidity ^0.6.0;\r\n\r\nimport \"./Ownable.sol\";\r\nimport \"./Item.sol\";\r\n\r\ncontract ItemManager is Ownable{\r\n    \r\n enum SupplyChainSteps{Created, Paid, Delivered}\r\n\r\n struct S_Item {\r\n Item _item;\r\n ItemManager.SupplyChainSteps _step;\r\n string _identifier;\r\n uint _priceInWei;\r\n }\r\n mapping(uint => S_Item) public items;\r\n uint itemIndex;\r\n\r\n event SupplyChainStep(uint _itemIndex, uint _step, address _itemaddress);\r\n\r\n function createItem(string memory _identifier, uint _itemPrice) public onlyOwner{\r\n Item item = new Item(this, _itemPrice, itemIndex);\r\n items[itemIndex]._item = item;\r\n items[itemIndex]._priceInWei = _itemPrice;\r\n items[itemIndex]._step = SupplyChainSteps.Created;\r\n items[itemIndex]._identifier = _identifier;\r\n emit SupplyChainStep(itemIndex, uint(items[itemIndex]._step),address(item));\r\n itemIndex++;\r\n }\r\n\r\n function triggerPayment(uint _itemIndex) public payable {\r\n require(items[_itemIndex]._priceInWei <= msg.value, \"Not fully paid\");\r\n require(items[_itemIndex]._step == SupplyChainSteps.Created, \"Item is further in the supply chain\");\r\n items[_itemIndex]._step = SupplyChainSteps.Paid;\r\n emit SupplyChainStep(_itemIndex, uint(items[_itemIndex]._step),address(items[_itemIndex]._item));\r\n }\r\n\r\n function triggerDelivery(uint _itemIndex) public onlyOwner{\r\n require(items[_itemIndex]._step == SupplyChainSteps.Paid, \"Item is further in the supply chain\");\r\n items[_itemIndex]._step = SupplyChainSteps.Delivered;\r\n emit SupplyChainStep(_itemIndex, uint(items[_itemIndex]._step),address(items[_itemIndex]._item));\r\n }\r\n\r\n function withdraw() public onlyOwner{\r\n   address myAddress = address(this);\r\n   uint256 etherBalance = myAddress.balance;\r\n   _owner.transfer(etherBalance);\r\n} \r\n}\r\n",
  "sourcePath": "E:\\Github\\SupplyChain\\contracts\\ItemManager.sol",
  "compiler": {
    "name": "solc",
    "version": "0.6.0+commit.26b70077.Emscripten.clang"
  },
  "schemaVersion": "3.2.4",
  "updatedAt": "2020-09-09T14:12:14.320Z",
  "networkType": "ethereum",
  "devdoc": {
    "methods": {}
  },
  "userdoc": {
    "methods": {}
  }
}