{
  "contractName": "medi",
  "abi": [
    {
      "anonymous": false,
      "inputs": [
        {
          "indexed": true,
          "internalType": "uint256",
          "name": "treatid",
          "type": "uint256"
        },
        {
          "indexed": true,
          "internalType": "address",
          "name": "doc",
          "type": "address"
        }
      ],
      "name": "notifydoc",
      "type": "event"
    },
    {
      "anonymous": false,
      "inputs": [
        {
          "indexed": true,
          "internalType": "address",
          "name": "patent",
          "type": "address"
        },
        {
          "indexed": false,
          "internalType": "uint8",
          "name": "stat",
          "type": "uint8"
        }
      ],
      "name": "patstate",
      "type": "event"
    },
    {
      "inputs": [],
      "name": "doccount",
      "outputs": [
        {
          "internalType": "uint256",
          "name": "",
          "type": "uint256"
        }
      ],
      "stateMutability": "view",
      "type": "function"
    },
    {
      "inputs": [
        {
          "internalType": "address",
          "name": "",
          "type": "address"
        }
      ],
      "name": "docs",
      "outputs": [
        {
          "internalType": "uint256",
          "name": "doctor_id",
          "type": "uint256"
        },
        {
          "internalType": "address",
          "name": "docadd",
          "type": "address"
        },
        {
          "internalType": "uint256",
          "name": "age",
          "type": "uint256"
        },
        {
          "internalType": "string",
          "name": "name",
          "type": "string"
        },
        {
          "internalType": "string",
          "name": "speciality",
          "type": "string"
        }
      ],
      "stateMutability": "view",
      "type": "function"
    },
    {
      "inputs": [
        {
          "internalType": "uint256",
          "name": "",
          "type": "uint256"
        }
      ],
      "name": "docsId",
      "outputs": [
        {
          "internalType": "address",
          "name": "",
          "type": "address"
        }
      ],
      "stateMutability": "view",
      "type": "function"
    },
    {
      "inputs": [
        {
          "internalType": "address",
          "name": "",
          "type": "address"
        }
      ],
      "name": "pat",
      "outputs": [
        {
          "internalType": "uint256",
          "name": "patient_id",
          "type": "uint256"
        },
        {
          "internalType": "address",
          "name": "patient_acc",
          "type": "address"
        },
        {
          "internalType": "string",
          "name": "allergies",
          "type": "string"
        },
        {
          "internalType": "string",
          "name": "weight",
          "type": "string"
        },
        {
          "internalType": "uint256",
          "name": "height",
          "type": "uint256"
        },
        {
          "internalType": "string",
          "name": "gender",
          "type": "string"
        },
        {
          "internalType": "uint256",
          "name": "age",
          "type": "uint256"
        },
        {
          "internalType": "string",
          "name": "bloodtype",
          "type": "string"
        },
        {
          "internalType": "string",
          "name": "location",
          "type": "string"
        },
        {
          "internalType": "enum medi.State",
          "name": "patient_state",
          "type": "uint8"
        }
      ],
      "stateMutability": "view",
      "type": "function"
    },
    {
      "inputs": [
        {
          "internalType": "uint256",
          "name": "",
          "type": "uint256"
        }
      ],
      "name": "patId",
      "outputs": [
        {
          "internalType": "address",
          "name": "",
          "type": "address"
        }
      ],
      "stateMutability": "view",
      "type": "function"
    },
    {
      "inputs": [],
      "name": "patientcount",
      "outputs": [
        {
          "internalType": "uint256",
          "name": "",
          "type": "uint256"
        }
      ],
      "stateMutability": "view",
      "type": "function"
    },
    {
      "inputs": [
        {
          "internalType": "uint256",
          "name": "",
          "type": "uint256"
        }
      ],
      "name": "treat",
      "outputs": [
        {
          "internalType": "uint256",
          "name": "treatment_id",
          "type": "uint256"
        },
        {
          "internalType": "address",
          "name": "doctor_add",
          "type": "address"
        },
        {
          "internalType": "address",
          "name": "patient_add",
          "type": "address"
        },
        {
          "internalType": "string",
          "name": "symptoms",
          "type": "string"
        },
        {
          "internalType": "string",
          "name": "medications",
          "type": "string"
        },
        {
          "internalType": "string",
          "name": "procedure",
          "type": "string"
        },
        {
          "internalType": "string",
          "name": "description",
          "type": "string"
        },
        {
          "internalType": "string",
          "name": "prescription",
          "type": "string"
        },
        {
          "internalType": "uint256",
          "name": "dateofComp",
          "type": "uint256"
        }
      ],
      "stateMutability": "view",
      "type": "function"
    },
    {
      "inputs": [],
      "name": "treatmentCount",
      "outputs": [
        {
          "internalType": "uint256",
          "name": "",
          "type": "uint256"
        }
      ],
      "stateMutability": "view",
      "type": "function"
    },
    {
      "inputs": [
        {
          "internalType": "address",
          "name": "_account",
          "type": "address"
        },
        {
          "internalType": "string",
          "name": "_allergies",
          "type": "string"
        },
        {
          "internalType": "string",
          "name": "_weight",
          "type": "string"
        },
        {
          "internalType": "uint256",
          "name": "_height",
          "type": "uint256"
        },
        {
          "internalType": "string",
          "name": "_gender",
          "type": "string"
        },
        {
          "internalType": "uint256",
          "name": "_age",
          "type": "uint256"
        },
        {
          "internalType": "string",
          "name": "_bloodtype",
          "type": "string"
        },
        {
          "internalType": "string",
          "name": "_location",
          "type": "string"
        }
      ],
      "name": "addpatient",
      "outputs": [],
      "stateMutability": "payable",
      "type": "function"
    },
    {
      "inputs": [
        {
          "internalType": "address",
          "name": "_account",
          "type": "address"
        },
        {
          "internalType": "string",
          "name": "_allergies",
          "type": "string"
        },
        {
          "internalType": "string",
          "name": "_weight",
          "type": "string"
        },
        {
          "internalType": "uint256",
          "name": "_height",
          "type": "uint256"
        },
        {
          "internalType": "uint256",
          "name": "_age",
          "type": "uint256"
        },
        {
          "internalType": "string",
          "name": "_location",
          "type": "string"
        }
      ],
      "name": "modpatient",
      "outputs": [],
      "stateMutability": "nonpayable",
      "type": "function"
    },
    {
      "inputs": [
        {
          "internalType": "uint256",
          "name": "_treatid",
          "type": "uint256"
        },
        {
          "internalType": "address",
          "name": "_docaccount",
          "type": "address"
        }
      ],
      "name": "setDoc",
      "outputs": [],
      "stateMutability": "nonpayable",
      "type": "function"
    },
    {
      "inputs": [
        {
          "internalType": "uint256",
          "name": "_age",
          "type": "uint256"
        },
        {
          "internalType": "string",
          "name": "_name",
          "type": "string"
        },
        {
          "internalType": "string",
          "name": "_speciality",
          "type": "string"
        }
      ],
      "name": "addDoctor",
      "outputs": [],
      "stateMutability": "nonpayable",
      "type": "function"
    },
    {
      "inputs": [
        {
          "internalType": "address",
          "name": "_account",
          "type": "address"
        },
        {
          "internalType": "string",
          "name": "_symptoms",
          "type": "string"
        },
        {
          "internalType": "string",
          "name": "_medications",
          "type": "string"
        }
      ],
      "name": "addTreatment",
      "outputs": [
        {
          "internalType": "uint256",
          "name": "",
          "type": "uint256"
        }
      ],
      "stateMutability": "nonpayable",
      "type": "function"
    },
    {
      "inputs": [
        {
          "internalType": "uint256",
          "name": "_treatid",
          "type": "uint256"
        },
        {
          "internalType": "string",
          "name": "_procedure",
          "type": "string"
        },
        {
          "internalType": "string",
          "name": "_description",
          "type": "string"
        },
        {
          "internalType": "string",
          "name": "_prescription",
          "type": "string"
        },
        {
          "internalType": "uint256",
          "name": "_status",
          "type": "uint256"
        }
      ],
      "name": "dotreatment",
      "outputs": [],
      "stateMutability": "nonpayable",
      "type": "function"
    },
    {
      "inputs": [
        {
          "internalType": "address",
          "name": "_account",
          "type": "address"
        }
      ],
      "name": "gettreatgone",
      "outputs": [
        {
          "internalType": "uint256[]",
          "name": "",
          "type": "uint256[]"
        }
      ],
      "stateMutability": "view",
      "type": "function"
    },
    {
      "inputs": [
        {
          "internalType": "address",
          "name": "_docaccount",
          "type": "address"
        }
      ],
      "name": "gettreatdone",
      "outputs": [
        {
          "internalType": "uint256[]",
          "name": "",
          "type": "uint256[]"
        }
      ],
      "stateMutability": "view",
      "type": "function"
    }
  ],
  "bytecode": "0x6080604052600080556000600155600060025534801561001e57600080fd5b50612d328061002e6000396000f3fe6080604052600436106100f35760003560e01c80638239886d1161008a578063bb3204b111610059578063bb3204b11461033e578063e3e5b8811461037b578063eb4d2ec1146103b8578063fddf3872146103f9576100f3565b80638239886d1461026557806385ad5fd1146102ab57806386ec81f2146102e85780638bc9715714610313576100f3565b80635c969004116100c65780635c969004146101ad5780636d19e776146101d6578063779d6996146102135780637aad7bcf1461023c576100f3565b806302b3b368146100f857806303b883a41461013d5780630eee7031146101595780635bac525b14610182575b600080fd5b34801561010457600080fd5b5061011f600480360361011a9190810190612528565b610436565b6040516101349998979695949392919061294c565b60405180910390f35b6101576004803603610152919081019061232d565b6107bc565b005b34801561016557600080fd5b50610180600480360361017b919081019061258d565b610cef565b005b34801561018e57600080fd5b50610197610f1f565b6040516101a49190612931565b60405180910390f35b3480156101b957600080fd5b506101d460048036036101cf9190810190612457565b610f25565b005b3480156101e257600080fd5b506101fd60048036036101f89190810190612285565b61119d565b60405161020a919061287e565b60405180910390f35b34801561021f57600080fd5b5061023a60048036036102359190810190612551565b611237565b005b34801561024857600080fd5b50610263600480360361025e919081019061260c565b6113b1565b005b34801561027157600080fd5b5061028c60048036036102879190810190612285565b611864565b6040516102a29a999897969594939291906129fc565b60405180910390f35b3480156102b757600080fd5b506102d260048036036102cd91908101906122ae565b611bdd565b6040516102df9190612931565b60405180910390f35b3480156102f457600080fd5b506102fd611ed0565b60405161030a9190612931565b60405180910390f35b34801561031f57600080fd5b50610328611ed6565b6040516103359190612931565b60405180910390f35b34801561034a57600080fd5b5061036560048036036103609190810190612285565b611edc565b604051610372919061287e565b60405180910390f35b34801561038757600080fd5b506103a2600480360361039d9190810190612528565b611f76565b6040516103af9190612863565b60405180910390f35b3480156103c457600080fd5b506103df60048036036103da9190810190612285565b611fa9565b6040516103f0959493929190612abb565b60405180910390f35b34801561040557600080fd5b50610420600480360361041b9190810190612528565b61212f565b60405161042d9190612863565b60405180910390f35b60076020528060005260406000206000915090508060000154908060010160009054906101000a900473ffffffffffffffffffffffffffffffffffffffff16908060020160009054906101000a900473ffffffffffffffffffffffffffffffffffffffff1690806003018054600181600116156101000203166002900480601f0160208091040260200160405190810160405280929190818152602001828054600181600116156101000203166002900480156105345780601f1061050957610100808354040283529160200191610534565b820191906000526020600020905b81548152906001019060200180831161051757829003601f168201915b505050505090806004018054600181600116156101000203166002900480601f0160208091040260200160405190810160405280929190818152602001828054600181600116156101000203166002900480156105d25780601f106105a7576101008083540402835291602001916105d2565b820191906000526020600020905b8154815290600101906020018083116105b557829003601f168201915b505050505090806005018054600181600116156101000203166002900480601f0160208091040260200160405190810160405280929190818152602001828054600181600116156101000203166002900480156106705780601f1061064557610100808354040283529160200191610670565b820191906000526020600020905b81548152906001019060200180831161065357829003601f168201915b505050505090806006018054600181600116156101000203166002900480601f01602080910402602001604051908101604052809291908181526020018280546001816001161561010002031660029004801561070e5780601f106106e35761010080835404028352916020019161070e565b820191906000526020600020905b8154815290600101906020018083116106f157829003601f168201915b505050505090806007018054600181600116156101000203166002900480601f0160208091040260200160405190810160405280929190818152602001828054600181600116156101000203166002900480156107ac5780601f10610781576101008083540402835291602001916107ac565b820191906000526020600020905b81548152906001019060200180831161078f57829003601f168201915b5050505050908060080154905089565b3360008090506000600190505b600154811161084f578273ffffffffffffffffffffffffffffffffffffffff166006600083815260200190815260200160002060009054906101000a900473ffffffffffffffffffffffffffffffffffffffff1673ffffffffffffffffffffffffffffffffffffffff161415610842576001915061084f565b80806001019150506107c9565b506001151581151514610897576040517f08c379a000000000000000000000000000000000000000000000000000000000815260040161088e906128f1565b60405180910390fd5b8960008090506000600190505b600054811161092a578273ffffffffffffffffffffffffffffffffffffffff166004600083815260200190815260200160002060009054906101000a900473ffffffffffffffffffffffffffffffffffffffff1673ffffffffffffffffffffffffffffffffffffffff16141561091d576001915061092a565b80806001019150506108a4565b506000151581151514610972576040517f08c379a000000000000000000000000000000000000000000000000000000000815260040161096990612911565b60405180910390fd5b6000808154809291906001019190505550600054600360008e73ffffffffffffffffffffffffffffffffffffffff1673ffffffffffffffffffffffffffffffffffffffff168152602001908152602001600020600001819055508b600360008e73ffffffffffffffffffffffffffffffffffffffff1673ffffffffffffffffffffffffffffffffffffffff16815260200190815260200160002060010160006101000a81548173ffffffffffffffffffffffffffffffffffffffff021916908373ffffffffffffffffffffffffffffffffffffffff1602179055508a600360008e73ffffffffffffffffffffffffffffffffffffffff1673ffffffffffffffffffffffffffffffffffffffff1681526020019081526020016000206002019080519060200190610aa3929190612162565b5089600360008e73ffffffffffffffffffffffffffffffffffffffff1673ffffffffffffffffffffffffffffffffffffffff1681526020019081526020016000206003019080519060200190610afa929190612162565b5088600360008e73ffffffffffffffffffffffffffffffffffffffff1673ffffffffffffffffffffffffffffffffffffffff1681526020019081526020016000206004018190555087600360008e73ffffffffffffffffffffffffffffffffffffffff1673ffffffffffffffffffffffffffffffffffffffff1681526020019081526020016000206005019080519060200190610b98929190612162565b5086600360008e73ffffffffffffffffffffffffffffffffffffffff1673ffffffffffffffffffffffffffffffffffffffff1681526020019081526020016000206006018190555085600360008e73ffffffffffffffffffffffffffffffffffffffff1673ffffffffffffffffffffffffffffffffffffffff1681526020019081526020016000206007019080519060200190610c36929190612162565b5084600360008e73ffffffffffffffffffffffffffffffffffffffff1673ffffffffffffffffffffffffffffffffffffffff1681526020019081526020016000206008019080519060200190610c8d929190612162565b508b600460008054815260200190815260200160002060006101000a81548173ffffffffffffffffffffffffffffffffffffffff021916908373ffffffffffffffffffffffffffffffffffffffff160217905550505050505050505050505050565b6001600081548092919060010191905055506000339050600154600560008373ffffffffffffffffffffffffffffffffffffffff1673ffffffffffffffffffffffffffffffffffffffff1681526020019081526020016000206000018190555080600560008373ffffffffffffffffffffffffffffffffffffffff1673ffffffffffffffffffffffffffffffffffffffff16815260200190815260200160002060010160006101000a81548173ffffffffffffffffffffffffffffffffffffffff021916908373ffffffffffffffffffffffffffffffffffffffff16021790555083600560008373ffffffffffffffffffffffffffffffffffffffff1673ffffffffffffffffffffffffffffffffffffffff1681526020019081526020016000206002018190555082600560008373ffffffffffffffffffffffffffffffffffffffff1673ffffffffffffffffffffffffffffffffffffffff1681526020019081526020016000206003019080519060200190610e6d929190612162565b5081600560008373ffffffffffffffffffffffffffffffffffffffff1673ffffffffffffffffffffffffffffffffffffffff1681526020019081526020016000206004019080519060200190610ec4929190612162565b508060066000600154815260200190815260200160002060006101000a81548173ffffffffffffffffffffffffffffffffffffffff021916908373ffffffffffffffffffffffffffffffffffffffff16021790555050505050565b60015481565b3360008090506000600190505b6001548111610fb8578273ffffffffffffffffffffffffffffffffffffffff166006600083815260200190815260200160002060009054906101000a900473ffffffffffffffffffffffffffffffffffffffff1673ffffffffffffffffffffffffffffffffffffffff161415610fab5760019150610fb8565b8080600101915050610f32565b506001151581151514611000576040517f08c379a0000000000000000000000000000000000000000000000000000000008152600401610ff7906128f1565b60405180910390fd5b86600360008a73ffffffffffffffffffffffffffffffffffffffff1673ffffffffffffffffffffffffffffffffffffffff1681526020019081526020016000206002019080519060200190611056929190612162565b5085600360008a73ffffffffffffffffffffffffffffffffffffffff1673ffffffffffffffffffffffffffffffffffffffff16815260200190815260200160002060030190805190602001906110ad929190612162565b5084600360008a73ffffffffffffffffffffffffffffffffffffffff1673ffffffffffffffffffffffffffffffffffffffff1681526020019081526020016000206004018190555083600360008a73ffffffffffffffffffffffffffffffffffffffff1673ffffffffffffffffffffffffffffffffffffffff1681526020019081526020016000206006018190555082600360008a73ffffffffffffffffffffffffffffffffffffffff1673ffffffffffffffffffffffffffffffffffffffff1681526020019081526020016000206008019080519060200190611192929190612162565b505050505050505050565b6060600560008373ffffffffffffffffffffffffffffffffffffffff1673ffffffffffffffffffffffffffffffffffffffff16815260200190815260200160002060050180548060200260200160405190810160405280929190818152602001828054801561122b57602002820191906000526020600020905b815481526020019060010190808311611217575b50505050509050919050565b3360008090506000600190505b60015481116112ca578273ffffffffffffffffffffffffffffffffffffffff166006600083815260200190815260200160002060009054906101000a900473ffffffffffffffffffffffffffffffffffffffff1673ffffffffffffffffffffffffffffffffffffffff1614156112bd57600191506112ca565b8080600101915050611244565b506001151581151514611312576040517f08c379a0000000000000000000000000000000000000000000000000000000008152600401611309906128f1565b60405180910390fd5b826007600086815260200190815260200160002060010160006101000a81548173ffffffffffffffffffffffffffffffffffffffff021916908373ffffffffffffffffffffffffffffffffffffffff1602179055508273ffffffffffffffffffffffffffffffffffffffff16847f7867030f459bc4290d2698e55110dda377af2eb2a762ed7daa68e55be51e6b2960405160405180910390a350505050565b3360008090506000600190505b6001548111611444578273ffffffffffffffffffffffffffffffffffffffff166006600083815260200190815260200160002060009054906101000a900473ffffffffffffffffffffffffffffffffffffffff1673ffffffffffffffffffffffffffffffffffffffff1614156114375760019150611444565b80806001019150506113be565b50600115158115151461148c576040517f08c379a0000000000000000000000000000000000000000000000000000000008152600401611483906128f1565b60405180910390fd5b856007600089815260200190815260200160002060050190805190602001906114b6929190612162565b50846007600089815260200190815260200160002060060190805190602001906114e1929190612162565b508360076000898152602001908152602001600020600701908051906020019061150c929190612162565b504260076000898152602001908152602001600020600801819055503360076000600254815260200190815260200160002060010160006101000a81548173ffffffffffffffffffffffffffffffffffffffff021916908373ffffffffffffffffffffffffffffffffffffffff16021790555060006007600089815260200190815260200160002060020160009054906101000a900473ffffffffffffffffffffffffffffffffffffffff169050600560003373ffffffffffffffffffffffffffffffffffffffff1673ffffffffffffffffffffffffffffffffffffffff16815260200190815260200160002060050188908060018154018082558091505060019003906000526020600020016000909190919091505560008414156116e0576000600360008373ffffffffffffffffffffffffffffffffffffffff1673ffffffffffffffffffffffffffffffffffffffff168152602001908152602001600020600a0160006101000a81548160ff0219169083600281111561168b57fe5b02179055508073ffffffffffffffffffffffffffffffffffffffff167f46d130e7b60f898bcb0da3d2d8401cd9983fea8fad7f05b42798b6b06cdb51f260006040516116d791906128a0565b60405180910390a25b600184141561179d576001600360008373ffffffffffffffffffffffffffffffffffffffff1673ffffffffffffffffffffffffffffffffffffffff168152602001908152602001600020600a0160006101000a81548160ff0219169083600281111561174857fe5b02179055508073ffffffffffffffffffffffffffffffffffffffff167f46d130e7b60f898bcb0da3d2d8401cd9983fea8fad7f05b42798b6b06cdb51f2600160405161179491906128bb565b60405180910390a25b600284141561185a576002600360008373ffffffffffffffffffffffffffffffffffffffff1673ffffffffffffffffffffffffffffffffffffffff168152602001908152602001600020600a0160006101000a81548160ff0219169083600281111561180557fe5b02179055508073ffffffffffffffffffffffffffffffffffffffff167f46d130e7b60f898bcb0da3d2d8401cd9983fea8fad7f05b42798b6b06cdb51f2600260405161185191906128d6565b60405180910390a25b5050505050505050565b60036020528060005260406000206000915090508060000154908060010160009054906101000a900473ffffffffffffffffffffffffffffffffffffffff1690806002018054600181600116156101000203166002900480601f01602080910402602001604051908101604052809291908181526020018280546001816001161561010002031660029004801561193c5780601f106119115761010080835404028352916020019161193c565b820191906000526020600020905b81548152906001019060200180831161191f57829003601f168201915b505050505090806003018054600181600116156101000203166002900480601f0160208091040260200160405190810160405280929190818152602001828054600181600116156101000203166002900480156119da5780601f106119af576101008083540402835291602001916119da565b820191906000526020600020905b8154815290600101906020018083116119bd57829003601f168201915b505050505090806004015490806005018054600181600116156101000203166002900480601f016020809104026020016040519081016040528092919081815260200182805460018160011615610100020316600290048015611a7e5780601f10611a5357610100808354040283529160200191611a7e565b820191906000526020600020905b815481529060010190602001808311611a6157829003601f168201915b505050505090806006015490806007018054600181600116156101000203166002900480601f016020809104026020016040519081016040528092919081815260200182805460018160011615610100020316600290048015611b225780601f10611af757610100808354040283529160200191611b22565b820191906000526020600020905b815481529060010190602001808311611b0557829003601f168201915b505050505090806008018054600181600116156101000203166002900480601f016020809104026020016040519081016040528092919081815260200182805460018160011615610100020316600290048015611bc05780601f10611b9557610100808354040283529160200191611bc0565b820191906000526020600020905b815481529060010190602001808311611ba357829003601f168201915b50505050509080600a0160009054906101000a900460ff1690508a565b60003360008090506000600190505b6001548111611c72578273ffffffffffffffffffffffffffffffffffffffff166006600083815260200190815260200160002060009054906101000a900473ffffffffffffffffffffffffffffffffffffffff1673ffffffffffffffffffffffffffffffffffffffff161415611c655760019150611c72565b8080600101915050611bec565b506001151581151514611cba576040517f08c379a0000000000000000000000000000000000000000000000000000000008152600401611cb1906128f1565b60405180910390fd5b600260008154809291906001019190505550600254600760006002548152602001908152602001600020600001819055503360076000600254815260200190815260200160002060010160006101000a81548173ffffffffffffffffffffffffffffffffffffffff021916908373ffffffffffffffffffffffffffffffffffffffff1602179055508560076000600254815260200190815260200160002060020160006101000a81548173ffffffffffffffffffffffffffffffffffffffff021916908373ffffffffffffffffffffffffffffffffffffffff160217905550846007600060025481526020019081526020016000206003019080519060200190611dc5929190612162565b50836007600060025481526020019081526020016000206004019080519060200190611df2929190612162565b50600360008773ffffffffffffffffffffffffffffffffffffffff1673ffffffffffffffffffffffffffffffffffffffff16815260200190815260200160002060090160025490806001815401808255809150506001900390600052602060002001600090919091909150556000600360008873ffffffffffffffffffffffffffffffffffffffff1673ffffffffffffffffffffffffffffffffffffffff168152602001908152602001600020600a0160006101000a81548160ff02191690836002811115611ebd57fe5b0217905550600254925050509392505050565b60005481565b60025481565b6060600360008373ffffffffffffffffffffffffffffffffffffffff1673ffffffffffffffffffffffffffffffffffffffff168152602001908152602001600020600901805480602002602001604051908101604052809291908181526020018280548015611f6a57602002820191906000526020600020905b815481526020019060010190808311611f56575b50505050509050919050565b60046020528060005260406000206000915054906101000a900473ffffffffffffffffffffffffffffffffffffffff1681565b60056020528060005260406000206000915090508060000154908060010160009054906101000a900473ffffffffffffffffffffffffffffffffffffffff1690806002015490806003018054600181600116156101000203166002900480601f0160208091040260200160405190810160405280929190818152602001828054600181600116156101000203166002900480156120875780601f1061205c57610100808354040283529160200191612087565b820191906000526020600020905b81548152906001019060200180831161206a57829003601f168201915b505050505090806004018054600181600116156101000203166002900480601f0160208091040260200160405190810160405280929190818152602001828054600181600116156101000203166002900480156121255780601f106120fa57610100808354040283529160200191612125565b820191906000526020600020905b81548152906001019060200180831161210857829003601f168201915b5050505050905085565b60066020528060005260406000206000915054906101000a900473ffffffffffffffffffffffffffffffffffffffff1681565b828054600181600116156101000203166002900490600052602060002090601f016020900481019282601f106121a357805160ff19168380011785556121d1565b828001600101855582156121d1579182015b828111156121d05782518255916020019190600101906121b5565b5b5090506121de91906121e2565b5090565b61220491905b808211156122005760008160009055506001016121e8565b5090565b90565b60008135905061221681612cce565b92915050565b600082601f83011261222d57600080fd5b813561224061223b82612b49565b612b1c565b9150808252602083016020830185838301111561225c57600080fd5b612267838284612c6e565b50505092915050565b60008135905061227f81612ce5565b92915050565b60006020828403121561229757600080fd5b60006122a584828501612207565b91505092915050565b6000806000606084860312156122c357600080fd5b60006122d186828701612207565b935050602084013567ffffffffffffffff8111156122ee57600080fd5b6122fa8682870161221c565b925050604084013567ffffffffffffffff81111561231757600080fd5b6123238682870161221c565b9150509250925092565b600080600080600080600080610100898b03121561234a57600080fd5b60006123588b828c01612207565b985050602089013567ffffffffffffffff81111561237557600080fd5b6123818b828c0161221c565b975050604089013567ffffffffffffffff81111561239e57600080fd5b6123aa8b828c0161221c565b96505060606123bb8b828c01612270565b955050608089013567ffffffffffffffff8111156123d857600080fd5b6123e48b828c0161221c565b94505060a06123f58b828c01612270565b93505060c089013567ffffffffffffffff81111561241257600080fd5b61241e8b828c0161221c565b92505060e089013567ffffffffffffffff81111561243b57600080fd5b6124478b828c0161221c565b9150509295985092959890939650565b60008060008060008060c0878903121561247057600080fd5b600061247e89828a01612207565b965050602087013567ffffffffffffffff81111561249b57600080fd5b6124a789828a0161221c565b955050604087013567ffffffffffffffff8111156124c457600080fd5b6124d089828a0161221c565b94505060606124e189828a01612270565b93505060806124f289828a01612270565b92505060a087013567ffffffffffffffff81111561250f57600080fd5b61251b89828a0161221c565b9150509295509295509295565b60006020828403121561253a57600080fd5b600061254884828501612270565b91505092915050565b6000806040838503121561256457600080fd5b600061257285828601612270565b925050602061258385828601612207565b9150509250929050565b6000806000606084860312156125a257600080fd5b60006125b086828701612270565b935050602084013567ffffffffffffffff8111156125cd57600080fd5b6125d98682870161221c565b925050604084013567ffffffffffffffff8111156125f657600080fd5b6126028682870161221c565b9150509250925092565b600080600080600060a0868803121561262457600080fd5b600061263288828901612270565b955050602086013567ffffffffffffffff81111561264f57600080fd5b61265b8882890161221c565b945050604086013567ffffffffffffffff81111561267857600080fd5b6126848882890161221c565b935050606086013567ffffffffffffffff8111156126a157600080fd5b6126ad8882890161221c565b92505060806126be88828901612270565b9150509295509295909350565b60006126d78383612845565b60208301905092915050565b6126ec81612bca565b82525050565b60006126fd82612b85565b6127078185612ba8565b935061271283612b75565b8060005b8381101561274357815161272a88826126cb565b975061273583612b9b565b925050600181019050612716565b5085935050505092915050565b61275981612c26565b82525050565b61276881612c38565b82525050565b61277781612c4a565b82525050565b61278681612c5c565b82525050565b600061279782612b90565b6127a18185612bb9565b93506127b1818560208601612c7d565b6127ba81612cb0565b840191505092915050565b60006127d2600c83612bb9565b91507f6e6f74206120646f63746f7200000000000000000000000000000000000000006000830152602082019050919050565b6000612812601083612bb9565b91507f63616c6c206d6f642070617469656e74000000000000000000000000000000006000830152602082019050919050565b61284e81612c0f565b82525050565b61285d81612c0f565b82525050565b600060208201905061287860008301846126e3565b92915050565b6000602082019050818103600083015261289881846126f2565b905092915050565b60006020820190506128b5600083018461275f565b92915050565b60006020820190506128d0600083018461276e565b92915050565b60006020820190506128eb600083018461277d565b92915050565b6000602082019050818103600083015261290a816127c5565b9050919050565b6000602082019050818103600083015261292a81612805565b9050919050565b60006020820190506129466000830184612854565b92915050565b600061012082019050612962600083018c612854565b61296f602083018b6126e3565b61297c604083018a6126e3565b818103606083015261298e818961278c565b905081810360808301526129a2818861278c565b905081810360a08301526129b6818761278c565b905081810360c08301526129ca818661278c565b905081810360e08301526129de818561278c565b90506129ee610100830184612854565b9a9950505050505050505050565b600061014082019050612a12600083018d612854565b612a1f602083018c6126e3565b8181036040830152612a31818b61278c565b90508181036060830152612a45818a61278c565b9050612a546080830189612854565b81810360a0830152612a66818861278c565b9050612a7560c0830187612854565b81810360e0830152612a87818661278c565b9050818103610100830152612a9c818561278c565b9050612aac610120830184612750565b9b9a5050505050505050505050565b600060a082019050612ad06000830188612854565b612add60208301876126e3565b612aea6040830186612854565b8181036060830152612afc818561278c565b90508181036080830152612b10818461278c565b90509695505050505050565b6000604051905081810181811067ffffffffffffffff82111715612b3f57600080fd5b8060405250919050565b600067ffffffffffffffff821115612b6057600080fd5b601f19601f8301169050602081019050919050565b6000819050602082019050919050565b600081519050919050565b600081519050919050565b6000602082019050919050565b600082825260208201905092915050565b600082825260208201905092915050565b6000612bd582612bef565b9050919050565b6000819050612bea82612cc1565b919050565b600073ffffffffffffffffffffffffffffffffffffffff82169050919050565b6000819050919050565b600060ff82169050919050565b6000612c3182612bdc565b9050919050565b6000612c4382612c19565b9050919050565b6000612c5582612c19565b9050919050565b6000612c6782612c19565b9050919050565b82818337600083830152505050565b60005b83811015612c9b578082015181840152602081019050612c80565b83811115612caa576000848401525b50505050565b6000601f19601f8301169050919050565b60038110612ccb57fe5b50565b612cd781612bca565b8114612ce257600080fd5b50565b612cee81612c0f565b8114612cf957600080fd5b5056fea26469706673582212204e2ffe0fa542493ff9dfd2158c9763b8f8daf11a57cf04de4d16af742c20926264736f6c63430006000033",
  "source": "pragma solidity ^0.6.0;\r\npragma experimental ABIEncoderV2;\r\n\r\n\r\ncontract medi{\r\n      uint public patientcount = 0;\r\n      uint public doccount = 0;\r\n      uint public treatmentCount = 0;\r\n      \r\n      event notifydoc(uint indexed treatid,address indexed doc);\r\n      event patstate(address indexed patent,uint8 stat);\r\n      \r\n      enum State {  Active, Recovered , Deceased }\r\n      \r\n      struct patient{\r\n        uint patient_id;\r\n        address patient_acc;\r\n        string allergies;\r\n        string weight;\r\n        uint height;\r\n        string gender;\r\n        uint age;\r\n        string bloodtype;\r\n        string location;\r\n        uint[] gonetreatment;\r\n        State patient_state;\r\n       \r\n    }\r\n    \r\n    mapping(address=>patient) public pat;\r\n    mapping(uint=>address) public patId;\r\n    \r\n     struct Doctor{\r\n        uint doctor_id;\r\n        address docadd;\r\n        uint age;\r\n        string name;\r\n        string speciality;\r\n        uint[] done_treatment;\r\n    \r\n    }\r\n    \r\n    mapping(address=>Doctor) public docs;\r\n    mapping(uint=>address) public docsId;\r\n    \r\n    struct Treatment{\r\n       uint treatment_id;\r\n       address doctor_add;\r\n       address patient_add;\r\n       string symptoms;\r\n        string medications;\r\n       string procedure;\r\n       string description;\r\n       string prescription;\r\n       uint dateofComp;\r\n    }\r\n    \r\n    mapping(uint => Treatment)public treat;\r\n    \r\n    function addpatient(address _account,string memory _allergies,string memory _weight, uint _height,string memory _gender,uint _age,string memory _bloodtype,string memory _location)public payable onlyDoctor(msg.sender) alreadypat(_account) {\r\n        patientcount++;\r\n        pat[_account].patient_id = patientcount;\r\n        pat[_account].patient_acc = _account;\r\n        pat[_account].allergies = _allergies;\r\n        pat[_account].weight =  _weight;\r\n        pat[_account].height =  _height;\r\n        pat[_account].gender = _gender;\r\n        pat[_account].age = _age;\r\n        pat[_account].bloodtype = _bloodtype;\r\n        pat[_account].location = _location;\r\n        patId[patientcount] = _account;\r\n    }\r\n    function modpatient(address _account,string memory _allergies,string memory _weight, uint _height,uint _age,string memory _location)public onlyDoctor(msg.sender)  {\r\n       \r\n      \r\n        pat[_account].allergies = _allergies;\r\n        pat[_account].weight =  _weight;\r\n        pat[_account].height =  _height;\r\n\r\n        pat[_account].age = _age;\r\n        pat[_account].location = _location;\r\n        \r\n    }\r\n    function setDoc(uint _treatid ,address _docaccount)public onlyDoctor(msg.sender) {\r\n            treat[_treatid].doctor_add = _docaccount;\r\n            emit notifydoc(_treatid,_docaccount);       \r\n     }\r\n     \r\n     \r\n    function addDoctor(uint _age,string memory _name,string memory _speciality)public {\r\n        doccount++;\r\n        address _account = msg.sender;\r\n        docs[_account].doctor_id = doccount ;\r\n        docs[_account].docadd = _account;\r\n        docs[_account].age = _age;\r\n        docs[_account].name = _name;\r\n        docs[_account].speciality = _speciality;\r\n        docsId[doccount] = _account;\r\n    }\r\n    \r\n    function addTreatment(address _account,string memory _symptoms,string memory _medications)public onlyDoctor(msg.sender) returns(uint){\r\n        treatmentCount++;\r\n        treat[treatmentCount].treatment_id = treatmentCount;\r\n        treat[treatmentCount].doctor_add = msg.sender;\r\n        treat[treatmentCount].patient_add = _account;\r\n          treat[treatmentCount].symptoms = _symptoms;\r\n        treat[treatmentCount].medications = _medications;\r\n        pat[_account].gonetreatment.push(treatmentCount);\r\n        pat[_account].patient_state = State.Active;\r\n        return treatmentCount;\r\n        \r\n    }\r\n    \r\n    modifier onlyDoctor(address y){\r\n        bool z = false;\r\n         for(uint i=1;i<=doccount;i++)\r\n        {\r\n            \r\n            if(docsId[i] == y){\r\n                z = true;\r\n                break;\r\n            }\r\n           \r\n        }\r\n         require(z==true,\"not a doctor\");\r\n            _;\r\n            \r\n    }\r\n     modifier alreadypat(address y){\r\n         bool z = false;\r\n         for(uint i=1;i<=patientcount;i++)\r\n        {\r\n            \r\n            if(patId[i] == y){\r\n                z = true;\r\n                break;\r\n            }\r\n            \r\n        }\r\n      \r\n        require(z==false,\"call mod patient\");\r\n            _;\r\n            \r\n    }\r\n    \r\n    function dotreatment(uint _treatid,string memory _procedure,string memory _description,string memory _prescription,uint _status)public onlyDoctor(msg.sender){\r\n        treat[_treatid].procedure = _procedure;\r\n        treat[_treatid].description = _description;\r\n        treat[_treatid].prescription = _prescription;\r\n        treat[_treatid].dateofComp = now;\r\n        treat[treatmentCount].doctor_add = msg.sender;\r\n        address x = treat[_treatid].patient_add;\r\n        docs[msg.sender].done_treatment.push(_treatid);\r\n        if(_status == 0)\r\n        {pat[x].patient_state = State.Active;\r\n            emit patstate(x,0);\r\n        }\r\n        if(_status == 1)\r\n        {pat[x].patient_state = State.Recovered;\r\n            emit patstate(x,1);\r\n        }\r\n        if(_status == 2)\r\n        {pat[x].patient_state = State.Deceased;\r\n            emit patstate(x,2);\r\n        }\r\n    }\r\n    function gettreatgone(address _account)public view returns (uint[] memory){\r\n        return pat[_account].gonetreatment;\r\n    }\r\n    function gettreatdone(address _docaccount)public view returns (uint[] memory){\r\n        return docs[_docaccount].done_treatment;\r\n    }\r\n    \r\n}",
  "sourcePath": "E:/Github/SupplyChain/contracts/medico.sol",
  "compiler": {
    "name": "solc",
    "version": "0.6.0+commit.26b70077.Emscripten.clang"
  },
  "schemaVersion": "3.2.4",
  "updatedAt": "2020-10-07T12:56:23.053Z",
  "devdoc": {
    "methods": {}
  },
  "userdoc": {
    "methods": {}
  }
}