{
  "contractName": "Ownable",
  "abi": [
    {
      "inputs": [],
      "stateMutability": "nonpayable",
      "type": "constructor"
    },
    {
      "inputs": [],
      "name": "isOwner",
      "outputs": [
        {
          "internalType": "bool",
          "name": "",
          "type": "bool"
        }
      ],
      "stateMutability": "view",
      "type": "function"
    }
  ],
  "bytecode": "0x6080604052348015600f57600080fd5b50336000806101000a81548173ffffffffffffffffffffffffffffffffffffffff021916908373ffffffffffffffffffffffffffffffffffffffff16021790555060da8061005e6000396000f3fe6080604052348015600f57600080fd5b506004361060285760003560e01c80638f32d59b14602d575b600080fd5b6033604d565b604051808215151515815260200191505060405180910390f35b60008060009054906101000a900473ffffffffffffffffffffffffffffffffffffffff1673ffffffffffffffffffffffffffffffffffffffff163373ffffffffffffffffffffffffffffffffffffffff161490509056fea264697066735822122005481227e033dcd70e45751da5641eabe2ed84c74f5adfbbe64a2460ded8a42364736f6c63430006000033",
  "source": "pragma solidity ^0.6.0;\r\n\r\ncontract Ownable{\r\n    address payable _owner;\r\n    \r\n    constructor() public{\r\n        _owner = msg.sender;\r\n    }\r\n    \r\n    modifier onlyOwner(){\r\n        require(isOwner(),\"You are not the owner\");\r\n        _;\r\n    }\r\n    function isOwner() public view returns(bool){\r\n        return (msg.sender == _owner);\r\n    }\r\n}\r\n\r\n",
  "sourcePath": "E:\\Github\\SupplyChain\\contracts\\Ownable.sol",
  "compiler": {
    "name": "solc",
    "version": "0.6.0+commit.26b70077.Emscripten.clang"
  },
  "schemaVersion": "3.2.4",
  "updatedAt": "2020-10-07T13:01:43.912Z",
  "devdoc": {
    "methods": {}
  },
  "userdoc": {
    "methods": {}
  }
}